{
  "contractName": "DefaultPoolInterestRateStrategy",
  "abi": [
    {
      "inputs": [
        {
          "internalType": "contract DelioPoolAddressesProvider",
          "name": "_provider",
          "type": "address"
        },
        {
          "internalType": "uint256",
          "name": "_baseVariableBorrowRate",
          "type": "uint256"
        },
        {
          "internalType": "uint256",
          "name": "_variableRateSlope1",
          "type": "uint256"
        },
        {
          "internalType": "uint256",
          "name": "_variableRateSlope2",
          "type": "uint256"
        }
      ],
      "stateMutability": "nonpayable",
      "type": "constructor"
    },
    {
      "inputs": [],
      "name": "EXCESS_UTILIZATION_RATE",
      "outputs": [
        {
          "internalType": "uint256",
          "name": "",
          "type": "uint256"
        }
      ],
      "stateMutability": "view",
      "type": "function"
    },
    {
      "inputs": [],
      "name": "OPTIMAL_UTILIZATION_RATE",
      "outputs": [
        {
          "internalType": "uint256",
          "name": "",
          "type": "uint256"
        }
      ],
      "stateMutability": "view",
      "type": "function"
    },
    {
      "inputs": [],
      "name": "addressesProvider",
      "outputs": [
        {
          "internalType": "contract DelioPoolAddressesProvider",
          "name": "",
          "type": "address"
        }
      ],
      "stateMutability": "view",
      "type": "function"
    },
    {
      "inputs": [],
      "name": "baseVariableBorrowRate",
      "outputs": [
        {
          "internalType": "uint256",
          "name": "",
          "type": "uint256"
        }
      ],
      "stateMutability": "view",
      "type": "function"
    },
    {
      "inputs": [],
      "name": "variableRateSlope1",
      "outputs": [
        {
          "internalType": "uint256",
          "name": "",
          "type": "uint256"
        }
      ],
      "stateMutability": "view",
      "type": "function"
    },
    {
      "inputs": [],
      "name": "variableRateSlope2",
      "outputs": [
        {
          "internalType": "uint256",
          "name": "",
          "type": "uint256"
        }
      ],
      "stateMutability": "view",
      "type": "function"
    },
    {
      "inputs": [],
      "name": "getBaseVariableBorrowRate",
      "outputs": [
        {
          "internalType": "uint256",
          "name": "",
          "type": "uint256"
        }
      ],
      "stateMutability": "view",
      "type": "function"
    },
    {
      "inputs": [],
      "name": "getVariableRateSlope1",
      "outputs": [
        {
          "internalType": "uint256",
          "name": "",
          "type": "uint256"
        }
      ],
      "stateMutability": "view",
      "type": "function"
    },
    {
      "inputs": [],
      "name": "getVariableRateSlope2",
      "outputs": [
        {
          "internalType": "uint256",
          "name": "",
          "type": "uint256"
        }
      ],
      "stateMutability": "view",
      "type": "function"
    },
    {
      "inputs": [
        {
          "internalType": "uint256",
          "name": "_availableLiquidity",
          "type": "uint256"
        },
        {
          "internalType": "uint256",
          "name": "_totalBorrowsVariable",
          "type": "uint256"
        }
      ],
      "name": "calculateInterestRates",
      "outputs": [
        {
          "internalType": "uint256",
          "name": "currentLiquidityRate",
          "type": "uint256"
        },
        {
          "internalType": "uint256",
          "name": "currentVariableBorrowRate",
          "type": "uint256"
        }
      ],
      "stateMutability": "view",
      "type": "function"
    }
  ],
  "bytecode": "0x608060405234801561001057600080fd5b506040516109863803806109868339818101604052608081101561003357600080fd5b8101908080519060200190929190805190602001909291908051906020019092919080519060200190929190505050836000806101000a81548173ffffffffffffffffffffffffffffffffffffffff021916908373ffffffffffffffffffffffffffffffffffffffff160217905550826001819055508160028190555080600381905550505050506108bc806100ca6000396000f3fe608060405234801561001057600080fd5b506004361061009e5760003560e01c80637b832f58116100665780637b832f581461016e578063a15f30ac1461018c578063b2589544146101aa578063c72c4d10146101c8578063f4202409146102125761009e565b80630b3429a2146100a3578063110966fa146100c1578063173198731461011457806334762ca51461013257806365614f8114610150575b600080fd5b6100ab610230565b6040518082815260200191505060405180910390f35b6100f7600480360360408110156100d757600080fd5b81019080803590602001909291908035906020019092919050505061023a565b604051808381526020018281526020019250505060405180910390f35b61011c610390565b6040518082815260200191505060405180910390f35b61013a61039f565b6040518082815260200191505060405180910390f35b6101586103a9565b6040518082815260200191505060405180910390f35b6101766103af565b6040518082815260200191505060405180910390f35b6101946103b5565b6040518082815260200191505060405180910390f35b6101b26103c5565b6040518082815260200191505060405180910390f35b6101d06103cb565b604051808273ffffffffffffffffffffffffffffffffffffffff1673ffffffffffffffffffffffffffffffffffffffff16815260200191505060405180910390f35b61021a6103f0565b6040518082815260200191505060405180910390f35b6000600254905090565b6000806000839050600080821480156102535750600086145b6102815761027c61026d83886103fa90919063ffffffff16565b8361048290919063ffffffff16565b610284565b60005b90506b0295be96e64066972000000081111561031f5760006102d86aa56fa5b99019a5c80000006102ca6b0295be96e640669720000000856104de90919063ffffffff16565b61048290919063ffffffff16565b90506103176102f28260035461052890919063ffffffff16565b6103096002546001546103fa90919063ffffffff16565b6103fa90919063ffffffff16565b935050610369565b6103666103556002546103476b0295be96e6406697200000008561048290919063ffffffff16565b61052890919063ffffffff16565b6001546103fa90919063ffffffff16565b92505b61038581610377878661058b565b61052890919063ffffffff16565b935050509250929050565b6aa56fa5b99019a5c800000081565b6000600154905090565b60035481565b60025481565b6b0295be96e64066972000000081565b60015481565b6000809054906101000a900473ffffffffffffffffffffffffffffffffffffffff1681565b6000600354905090565b600080828401905083811015610478576040517f08c379a000000000000000000000000000000000000000000000000000000000815260040180806020018281038252601b8152602001807f536166654d6174683a206164646974696f6e206f766572666c6f77000000000081525060200191505060405180910390fd5b8091505092915050565b6000806002838161048f57fe5b0490506104d5836104c76104b86b033b2e3c9fd0803ce8000000886105ef90919063ffffffff16565b846103fa90919063ffffffff16565b61067590919063ffffffff16565b91505092915050565b600061052083836040518060400160405280601e81526020017f536166654d6174683a207375627472616374696f6e206f766572666c6f7700008152506106bf565b905092915050565b60006105836b033b2e3c9fd0803ce800000061057561055085876105ef90919063ffffffff16565b60026b033b2e3c9fd0803ce80000008161056657fe5b046103fa90919063ffffffff16565b61067590919063ffffffff16565b905092915050565b60008083905060008114156105a45760009150506105e9565b60006105c1846105b38761077f565b61052890919063ffffffff16565b905060006105e06105d18461077f565b8361048290919063ffffffff16565b90508093505050505b92915050565b600080831415610602576000905061066f565b600082840290508284828161061357fe5b041461066a576040517f08c379a00000000000000000000000000000000000000000000000000000000081526004018080602001828103825260218152602001806108666021913960400191505060405180910390fd5b809150505b92915050565b60006106b783836040518060400160405280601a81526020017f536166654d6174683a206469766973696f6e206279207a65726f00000000000081525061079f565b905092915050565b600083831115829061076c576040517f08c379a00000000000000000000000000000000000000000000000000000000081526004018080602001828103825283818151815260200191508051906020019080838360005b83811015610731578082015181840152602081019050610716565b50505050905090810190601f16801561075e5780820380516001836020036101000a031916815260200191505b509250505060405180910390fd5b5060008385039050809150509392505050565b6000610798633b9aca00836105ef90919063ffffffff16565b9050919050565b6000808311829061084b576040517f08c379a00000000000000000000000000000000000000000000000000000000081526004018080602001828103825283818151815260200191508051906020019080838360005b838110156108105780820151818401526020810190506107f5565b50505050905090810190601f16801561083d5780820380516001836020036101000a031916815260200191505b509250505060405180910390fd5b50600083858161085757fe5b04905080915050939250505056fe536166654d6174683a206d756c7469706c69636174696f6e206f766572666c6f77a2646970667358221220088a4511dcdd0cb2b72d55c726ecab6e4ac099e79a4f0ea68eef65b24eea3c5064736f6c63430006020033",
  "source": "pragma solidity ^0.6.0;\r\n\r\nimport \"../interfaces/IPoolInterestRateStrategy.sol\";\r\nimport \"../libraries/WadRayMath.sol\";\r\nimport \"../configuration/DelioPoolAddressesProvider.sol\";\r\n//import \"./LendingPoolCore.sol\";\r\n//import \"../interfaces/ILendingRateOracle.sol\";\r\n\r\nimport \"openzeppelin-solidity/contracts/math/SafeMath.sol\";\r\n\r\ncontract DefaultPoolInterestRateStrategy is IPoolInterestRateStrategy {\r\n    using WadRayMath for uint256;\r\n    using SafeMath for uint256;\r\n\r\n    /**\r\n    * @dev this constant represents the utilization rate at which the pool aims to obtain most competitive borrow rates\r\n    * expressed in ray\r\n    **/\r\n    uint256 public constant OPTIMAL_UTILIZATION_RATE = 0.8 * 1e27;\r\n\r\n   /**\r\n    * @dev this constant represents the excess utilization rate above the optimal. It's always equal to\r\n    * 1-optimal utilization rate. Added as a constant here for gas optimizations\r\n    * expressed in ray\r\n    **/\r\n\r\n    uint256 public constant EXCESS_UTILIZATION_RATE = 0.2 * 1e27;\r\n\r\n    DelioPoolAddressesProvider public addressesProvider;\r\n\r\n\r\n    //base variable borrow rate when Utilization rate = 0. Expressed in ray\r\n    uint256 public baseVariableBorrowRate;\r\n\r\n    //slope of the variable interest curve when utilization rate > 0 and <= OPTIMAL_UTILIZATION_RATE. Expressed in ray\r\n    uint256 public variableRateSlope1;\r\n\r\n    //slope of the variable interest curve when utilization rate > OPTIMAL_UTILIZATION_RATE. Expressed in ray\r\n    uint256 public variableRateSlope2;\r\n\r\n    constructor(\r\n        DelioPoolAddressesProvider _provider,\r\n        uint256 _baseVariableBorrowRate,\r\n        uint256 _variableRateSlope1,\r\n        uint256 _variableRateSlope2\r\n    ) public {\r\n        addressesProvider = _provider;\r\n        baseVariableBorrowRate = _baseVariableBorrowRate;\r\n        variableRateSlope1 = _variableRateSlope1;\r\n        variableRateSlope2 = _variableRateSlope2;\r\n    }\r\n\r\n    /**\r\n    @dev accessors\r\n     */\r\n\r\n    function getBaseVariableBorrowRate() external virtual override view returns (uint256) {\r\n        return baseVariableBorrowRate;\r\n    }\r\n\r\n    function getVariableRateSlope1() external view returns (uint256) {\r\n        return variableRateSlope1;\r\n    }\r\n\r\n    function getVariableRateSlope2() external view returns (uint256) {\r\n        return variableRateSlope2;\r\n    }\r\n\r\n    /**\r\n    * @dev calculates the interest rates depending on the available liquidity and the total borrowed.\r\n    * @param _availableLiquidity the liquidity available in the reserve\r\n    * @param _totalBorrowsVariable the total borrowed from the reserve at a variable rate\r\n    **/\r\n    function calculateInterestRates(\r\n        uint256 _availableLiquidity,\r\n        uint256 _totalBorrowsVariable\r\n    )\r\n        external virtual override\r\n        view\r\n        returns (\r\n            uint256 currentLiquidityRate,\r\n            uint256 currentVariableBorrowRate\r\n        )\r\n    {\r\n        uint256 totalBorrows = _totalBorrowsVariable;\r\n\r\n        uint256 utilizationRate = (totalBorrows == 0 && _availableLiquidity == 0)\r\n            ? 0\r\n            : totalBorrows.rayDiv(_availableLiquidity.add(totalBorrows));\r\n\r\n        \r\n        if (utilizationRate > OPTIMAL_UTILIZATION_RATE) {\r\n            uint256 excessUtilizationRateRatio = utilizationRate\r\n                .sub(OPTIMAL_UTILIZATION_RATE)\r\n                .rayDiv(EXCESS_UTILIZATION_RATE);\r\n\r\n           currentVariableBorrowRate = baseVariableBorrowRate.add(variableRateSlope1).add(\r\n                variableRateSlope2.rayMul(excessUtilizationRateRatio)\r\n            );\r\n        } else {\r\n            currentVariableBorrowRate = baseVariableBorrowRate.add(\r\n                utilizationRate.rayDiv(OPTIMAL_UTILIZATION_RATE).rayMul(variableRateSlope1)\r\n            );\r\n        }\r\n\r\n        currentLiquidityRate = getOverallBorrowRateInternal(\r\n            _totalBorrowsVariable,\r\n            currentVariableBorrowRate\r\n        )\r\n            .rayMul(utilizationRate);\r\n\r\n    }\r\n\r\n    /**\r\n    * @dev calculates the overall borrow rate as the weighted average between the total variable borrows and total stable borrows.\r\n    * @param _totalBorrowsVariable the total borrowed from the reserve at a variable rate\r\n    * @param _currentVariableBorrowRate the current variable borrow rate\r\n    **/\r\n    function getOverallBorrowRateInternal(\r\n        uint256 _totalBorrowsVariable,\r\n        uint256 _currentVariableBorrowRate\r\n    ) internal pure returns (uint256) {\r\n        uint256 totalBorrows = _totalBorrowsVariable;\r\n\r\n        if (totalBorrows == 0) return 0;\r\n\r\n        uint256 weightedVariableRate = _totalBorrowsVariable.wadToRay().rayMul(\r\n            _currentVariableBorrowRate\r\n        );\r\n\r\n        uint256 overallBorrowRate = weightedVariableRate.rayDiv(\r\n            totalBorrows.wadToRay()\r\n        );\r\n\r\n        return overallBorrowRate;\r\n    }\r\n}",
  "sourcePath": "D:/Ducato-Development/Ducato/contracts/deliopool/DefaultPoolInterestRateStrategy.sol",
  "compiler": {
    "name": "solc",
    "version": "0.6.2+commit.bacdbe57.Emscripten.clang"
  },
  "schemaVersion": "3.2.5",
  "updatedAt": "2020-10-16T00:48:38.314Z",
  "devdoc": {
    "methods": {
      "calculateInterestRates(uint256,uint256)": {
        "details": "calculates the interest rates depending on the available liquidity and the total borrowed.",
        "params": {
          "_availableLiquidity": "the liquidity available in the reserve",
          "_totalBorrowsVariable": "the total borrowed from the reserve at a variable rate*"
        }
      },
      "getBaseVariableBorrowRate()": {
        "details": "accessors"
      }
    }
  },
  "userdoc": {
    "methods": {}
  }
}